{
  "_format": "hh-sol-artifact-1",
  "contractName": "Swaps",
  "sourceName": "contracts/Swaps.sol",
  "abi": [
    {
      "inputs": [],
      "name": "DAI",
      "outputs": [
        {
          "internalType": "address",
          "name": "",
          "type": "address"
        }
      ],
      "stateMutability": "view",
      "type": "function"
    },
    {
      "inputs": [],
      "name": "USDC",
      "outputs": [
        {
          "internalType": "address",
          "name": "",
          "type": "address"
        }
      ],
      "stateMutability": "view",
      "type": "function"
    },
    {
      "inputs": [],
      "name": "WETH9",
      "outputs": [
        {
          "internalType": "address",
          "name": "",
          "type": "address"
        }
      ],
      "stateMutability": "view",
      "type": "function"
    },
    {
      "inputs": [
        {
          "internalType": "uint256",
          "name": "amountIn",
          "type": "uint256"
        }
      ],
      "name": "swapExactInputMultihop",
      "outputs": [
        {
          "internalType": "uint256",
          "name": "amountOut",
          "type": "uint256"
        }
      ],
      "stateMutability": "nonpayable",
      "type": "function"
    },
    {
      "inputs": [
        {
          "internalType": "uint256",
          "name": "amountIn",
          "type": "uint256"
        }
      ],
      "name": "swapExactInputSingle",
      "outputs": [
        {
          "internalType": "uint256",
          "name": "amountOut",
          "type": "uint256"
        }
      ],
      "stateMutability": "nonpayable",
      "type": "function"
    },
    {
      "inputs": [
        {
          "internalType": "uint256",
          "name": "amountOut",
          "type": "uint256"
        },
        {
          "internalType": "uint256",
          "name": "amountInMaximum",
          "type": "uint256"
        }
      ],
      "name": "swapExactOutputMultihop",
      "outputs": [
        {
          "internalType": "uint256",
          "name": "amountIn",
          "type": "uint256"
        }
      ],
      "stateMutability": "nonpayable",
      "type": "function"
    },
    {
      "inputs": [
        {
          "internalType": "uint256",
          "name": "amountOut",
          "type": "uint256"
        },
        {
          "internalType": "uint256",
          "name": "amountInMaximum",
          "type": "uint256"
        }
      ],
      "name": "swapExactOutputSingle",
      "outputs": [
        {
          "internalType": "uint256",
          "name": "amountIn",
          "type": "uint256"
        }
      ],
      "stateMutability": "nonpayable",
      "type": "function"
    },
    {
      "inputs": [],
      "name": "swapRouter",
      "outputs": [
        {
          "internalType": "contract ISwapRouter",
          "name": "",
          "type": "address"
        }
      ],
      "stateMutability": "view",
      "type": "function"
    }
  ],
  "bytecode": "0x608060405234801561001057600080fd5b50611622806100206000396000f3fe608060405234801561001057600080fd5b50600436106100885760003560e01c8063c31c9c071161005b578063c31c9c0714610129578063c4b69a1814610147578063e0bab4c414610177578063edd835571461019557610088565b80633b85cf6a1461008d5780634aa4a4fc146100bd57806373bd43ad146100db57806389a302711461010b575b600080fd5b6100a760048036038101906100a2919061104e565b6101c5565b6040516100b4919061149b565b60405180910390f35b6100c56103c8565b6040516100d291906113e9565b60405180910390f35b6100f560048036038101906100f09190610ffc565b6103e0565b604051610102919061149b565b60405180910390f35b6101136105a3565b60405161012091906113e9565b60405180910390f35b6101316105bb565b60405161013e9190611404565b60405180910390f35b610161600480360381019061015c919061104e565b6105d3565b60405161016e919061149b565b60405180910390f35b61017f6107f4565b60405161018c91906113e9565b60405180910390f35b6101af60048036038101906101aa9190610ffc565b61080c565b6040516101bc919061149b565b60405180910390f35b60006101e773c02aaa39b223fe8d0a0e5c4f27ead9083c756cc23330856109b0565b61021a73c02aaa39b223fe8d0a0e5c4f27ead9083c756cc273e592427a0aece92de3edee1f18e0157c0586156484610bd0565b60006040518060a00160405280736b175474e89094c44da98b954eedeac495271d0f606473a0b86991c6218b36c1d19d4a2e9eb0ce3606eb48610bb873c02aaa39b223fe8d0a0e5c4f27ead9083c756cc260405160200161027f95949392919061138a565b60405160208183030381529060405281526020013373ffffffffffffffffffffffffffffffffffffffff16815260200142815260200185815260200184815250905073e592427a0aece92de3edee1f18e0157c0586156473ffffffffffffffffffffffffffffffffffffffff1663f28c0498826040518263ffffffff1660e01b815260040161030e919061145d565b602060405180830381600087803b15801561032857600080fd5b505af115801561033c573d6000803e3d6000fd5b505050506040513d601f19601f820116820180604052508101906103609190611025565b9150828210156103c15761039e73c02aaa39b223fe8d0a0e5c4f27ead9083c756cc273e592427a0aece92de3edee1f18e0157c058615646000610bd0565b6103c073c02aaa39b223fe8d0a0e5c4f27ead9083c756cc230338587036109b0565b5b5092915050565b73c02aaa39b223fe8d0a0e5c4f27ead9083c756cc281565b600061040273c02aaa39b223fe8d0a0e5c4f27ead9083c756cc23330856109b0565b61043573c02aaa39b223fe8d0a0e5c4f27ead9083c756cc273e592427a0aece92de3edee1f18e0157c0586156484610bd0565b600060405180610100016040528073c02aaa39b223fe8d0a0e5c4f27ead9083c756cc273ffffffffffffffffffffffffffffffffffffffff168152602001736b175474e89094c44da98b954eedeac495271d0f73ffffffffffffffffffffffffffffffffffffffff168152602001610bb862ffffff1681526020013373ffffffffffffffffffffffffffffffffffffffff16815260200142815260200184815260200160008152602001600073ffffffffffffffffffffffffffffffffffffffff16815250905073e592427a0aece92de3edee1f18e0157c0586156473ffffffffffffffffffffffffffffffffffffffff1663414bf389826040518263ffffffff1660e01b81526004016105499190611441565b602060405180830381600087803b15801561056357600080fd5b505af1158015610577573d6000803e3d6000fd5b505050506040513d601f19601f8201168201806040525081019061059b9190611025565b915050919050565b73a0b86991c6218b36c1d19d4a2e9eb0ce3606eb4881565b73e592427a0aece92de3edee1f18e0157c0586156481565b60006105f573c02aaa39b223fe8d0a0e5c4f27ead9083c756cc23330856109b0565b61062873c02aaa39b223fe8d0a0e5c4f27ead9083c756cc273e592427a0aece92de3edee1f18e0157c0586156484610bd0565b600060405180610100016040528073c02aaa39b223fe8d0a0e5c4f27ead9083c756cc273ffffffffffffffffffffffffffffffffffffffff168152602001736b175474e89094c44da98b954eedeac495271d0f73ffffffffffffffffffffffffffffffffffffffff168152602001610bb862ffffff1681526020013373ffffffffffffffffffffffffffffffffffffffff168152602001428152602001858152602001848152602001600073ffffffffffffffffffffffffffffffffffffffff16815250905073e592427a0aece92de3edee1f18e0157c0586156473ffffffffffffffffffffffffffffffffffffffff1663db3e2198826040518263ffffffff1660e01b815260040161073b919061147f565b602060405180830381600087803b15801561075557600080fd5b505af1158015610769573d6000803e3d6000fd5b505050506040513d601f19601f8201168201806040525081019061078d9190611025565b9150828210156107ed576107cb73c02aaa39b223fe8d0a0e5c4f27ead9083c756cc273e592427a0aece92de3edee1f18e0157c058615646000610bd0565b6107ec73c02aaa39b223fe8d0a0e5c4f27ead9083c756cc233848603610dd1565b5b5092915050565b736b175474e89094c44da98b954eedeac495271d0f81565b600061082e73c02aaa39b223fe8d0a0e5c4f27ead9083c756cc23330856109b0565b61086173c02aaa39b223fe8d0a0e5c4f27ead9083c756cc273e592427a0aece92de3edee1f18e0157c0586156484610bd0565b60006040518060a0016040528073c02aaa39b223fe8d0a0e5c4f27ead9083c756cc2610bb873a0b86991c6218b36c1d19d4a2e9eb0ce3606eb486064736b175474e89094c44da98b954eedeac495271d0f6040516020016108c695949392919061138a565b60405160208183030381529060405281526020013373ffffffffffffffffffffffffffffffffffffffff1681526020014281526020018481526020016000815250905073e592427a0aece92de3edee1f18e0157c0586156473ffffffffffffffffffffffffffffffffffffffff1663c04b8d59826040518263ffffffff1660e01b8152600401610956919061141f565b602060405180830381600087803b15801561097057600080fd5b505af1158015610984573d6000803e3d6000fd5b505050506040513d601f19601f820116820180604052508101906109a89190611025565b915050919050565b6000808573ffffffffffffffffffffffffffffffffffffffff166323b872dd60e01b868686604051602401808473ffffffffffffffffffffffffffffffffffffffff1681526020018373ffffffffffffffffffffffffffffffffffffffff1681526020018281526020019350505050604051602081830303815290604052907bffffffffffffffffffffffffffffffffffffffffffffffffffffffff19166020820180517bffffffffffffffffffffffffffffffffffffffffffffffffffffffff83818316178352505050506040518082805190602001908083835b60208310610aaf5780518252602082019150602081019050602083039250610a8c565b6001836020036101000a0380198251168184511680821785525050505050509050019150506000604051808303816000865af19150503d8060008114610b11576040519150601f19603f3d011682016040523d82523d6000602084013e610b16565b606091505b5091509150818015610b565750600081511480610b555750808060200190516020811015610b4357600080fd5b81019080805190602001909291905050505b5b610bc8576040517f08c379a00000000000000000000000000000000000000000000000000000000081526004018080602001828103825260038152602001807f535446000000000000000000000000000000000000000000000000000000000081525060200191505060405180910390fd5b505050505050565b6000808473ffffffffffffffffffffffffffffffffffffffff1663095ea7b360e01b8585604051602401808373ffffffffffffffffffffffffffffffffffffffff16815260200182815260200192505050604051602081830303815290604052907bffffffffffffffffffffffffffffffffffffffffffffffffffffffff19166020820180517bffffffffffffffffffffffffffffffffffffffffffffffffffffffff83818316178352505050506040518082805190602001908083835b60208310610cb15780518252602082019150602081019050602083039250610c8e565b6001836020036101000a0380198251168184511680821785525050505050509050019150506000604051808303816000865af19150503d8060008114610d13576040519150601f19603f3d011682016040523d82523d6000602084013e610d18565b606091505b5091509150818015610d585750600081511480610d575750808060200190516020811015610d4557600080fd5b81019080805190602001909291905050505b5b610dca576040517f08c379a00000000000000000000000000000000000000000000000000000000081526004018080602001828103825260028152602001807f534100000000000000000000000000000000000000000000000000000000000081525060200191505060405180910390fd5b5050505050565b6000808473ffffffffffffffffffffffffffffffffffffffff1663a9059cbb60e01b8585604051602401808373ffffffffffffffffffffffffffffffffffffffff16815260200182815260200192505050604051602081830303815290604052907bffffffffffffffffffffffffffffffffffffffffffffffffffffffff19166020820180517bffffffffffffffffffffffffffffffffffffffffffffffffffffffff83818316178352505050506040518082805190602001908083835b60208310610eb25780518252602082019150602081019050602083039250610e8f565b6001836020036101000a0380198251168184511680821785525050505050509050019150506000604051808303816000865af19150503d8060008114610f14576040519150601f19603f3d011682016040523d82523d6000602084013e610f19565b606091505b5091509150818015610f595750600081511480610f585750808060200190516020811015610f4657600080fd5b81019080805190602001909291905050505b5b610fcb576040517f08c379a00000000000000000000000000000000000000000000000000000000081526004018080602001828103825260028152602001807f535400000000000000000000000000000000000000000000000000000000000081525060200191505060405180910390fd5b5050505050565b600081359050610fe1816115d5565b92915050565b600081519050610ff6816115d5565b92915050565b60006020828403121561100e57600080fd5b600061101c84828501610fd2565b91505092915050565b60006020828403121561103757600080fd5b600061104584828501610fe7565b91505092915050565b6000806040838503121561106157600080fd5b600061106f85828601610fd2565b925050602061108085828601610fd2565b9150509250929050565b611093816114d2565b82525050565b6110a2816114d2565b82525050565b6110b96110b4826114d2565b611574565b82525050565b60006110ca826114b6565b6110d481856114c1565b93506110e4818560208601611541565b6110ed816115aa565b840191505092915050565b6111018161151d565b82525050565b600060a083016000830151848203600086015261112482826110bf565b9150506020830151611139602086018261108a565b50604083015161114c604086018261136c565b50606083015161115f606086018261136c565b506080830151611172608086018261136c565b508091505092915050565b61010082016000820151611194600085018261108a565b5060208201516111a7602085018261108a565b5060408201516111ba6040850182611346565b5060608201516111cd606085018261108a565b5060808201516111e0608085018261136c565b5060a08201516111f360a085018261136c565b5060c082015161120660c085018261136c565b5060e082015161121960e0850182611337565b50505050565b600060a083016000830151848203600086015261123c82826110bf565b9150506020830151611251602086018261108a565b506040830151611264604086018261136c565b506060830151611277606086018261136c565b50608083015161128a608086018261136c565b508091505092915050565b610100820160008201516112ac600085018261108a565b5060208201516112bf602085018261108a565b5060408201516112d26040850182611346565b5060608201516112e5606085018261108a565b5060808201516112f8608085018261136c565b5060a082015161130b60a085018261136c565b5060c082015161131e60c085018261136c565b5060e082015161133160e0850182611337565b50505050565b611340816114e4565b82525050565b61134f81611504565b82525050565b61136661136182611504565b611598565b82525050565b61137581611513565b82525050565b61138481611513565b82525050565b600061139682886110a8565b6014820191506113a68287611355565b6003820191506113b682866110a8565b6014820191506113c68285611355565b6003820191506113d682846110a8565b6014820191508190509695505050505050565b60006020820190506113fe6000830184611099565b92915050565b600060208201905061141960008301846110f8565b92915050565b600060208201905081810360008301526114398184611107565b905092915050565b600061010082019050611457600083018461117d565b92915050565b60006020820190508181036000830152611477818461121f565b905092915050565b6000610100820190506114956000830184611295565b92915050565b60006020820190506114b0600083018461137b565b92915050565b600081519050919050565b600082825260208201905092915050565b60006114dd826114e4565b9050919050565b600073ffffffffffffffffffffffffffffffffffffffff82169050919050565b600062ffffff82169050919050565b6000819050919050565b60006115288261152f565b9050919050565b600061153a826114e4565b9050919050565b60005b8381101561155f578082015181840152602081019050611544565b8381111561156e576000848401525b50505050565b600061157f82611586565b9050919050565b6000611591826115c8565b9050919050565b60006115a3826115bb565b9050919050565b6000601f19601f8301169050919050565b60008160e81b9050919050565b60008160601b9050919050565b6115de81611513565b81146115e957600080fd5b5056fea26469706673582212208f44862563095f1d09571859db64910fc35eb63ba46ff1815eab487029b9a40e64736f6c63430007060033",
  "linkReferences": {},
  "deployedLinkReferences": {}
}